:1000000009C016C015C021C013C012C011C010C055
:100010000FC00EC011241FBECFE9CDBF20E0A0E667
:10002000B0E001C01D92A336B207E1F742D079C01B
:10003000E7CF83EA8FBD82E083BF89BF78940895BC
:10004000F8941FBC13BE19BE08951F920F920FB6ED
:100050000F9211248F939F93909162008091610081
:100060009923F1F0811102C010926000909160001C
:10007000911105C08F3F19F08F5F809361008091CF
:1000800061008F3F29F49F3F19F09F5F90936000BC
:10009000909160009F3F31F481508093610002C0D5
:1000A0008111FACF9F918F910F900FBE0F901F90EB
:1000B000189510926200109261001092600087E122
:1000C00087BBC39A16BE19BCC1E0B39904C0B1DFA7
:1000D000C093620002C01092620080916200882387
:1000E00049F0C49A809160008F3F11F0C29A05C018
:1000F000C29803C088B38B7E88BB8091610086BFA5
:100100009091620080916100911108C0811106C038
:1001100097DF19BC88B38C7F88BBD7CF809589BD0A
:06012000D4CFF894FFCFDC
:00000001FF
