:1000000009C016C015C01CC013C012C011C010C05A
:100010000FC00EC011241FBECFE9CDBF20E0A0E667
:10002000B0E001C01D92A236B207E1F726D048C069
:10003000E7CF83EA8FBD82E083BF89BF78940895BC
:100040001F920F920FB60F9211248F939F9390914E
:10005000610080916000992321F08F3F39F08F5F1C
:1000600003C0882319F08150809360009F918F9185
:100070000F900FBE0F901F90189510926100109274
:10008000600087E087BB88B3886188BB16BE19BC57
:10009000D0DF91E0B49903C09093610003C0B39B9B
:1000A0001092610080916100882311F0C29A01C012
:1000B000C2988091600086BF8091600089BDEACFC0
:0400C000F894FFCFE2
:00000001FF
