:1000000009C016C015C021C013C012C011C010C055
:100010000FC00EC011241FBECFE9CDBF20E0A0E667
:10002000B0E001C01D92A236B207E1F72BD059C053
:10003000E7CF83EA8FBD82E083BF89BF78940895BC
:10004000F8941FBC13BE19BE08951F920F920FB6ED
:100050000F9211248F939F93909161008091600083
:10006000992321F08F3F39F08F5F03C0882319F067
:100070008150809360009F918F910F900FBE0F90E1
:100080001F901895109261001092600087E087BB66
:1000900088B3886188BB16BE19BCC1E0B49904C09E
:1000A000C8DFC093610003C0B39B109261008091D0
:1000B0006100882311F0C29A01C0C298809160004B
:1000C00086BF8091600089BD809161008111E6CF7B
:1000D000809160008111E2CFB3DF88B38C7F88BB51
:0600E000DDCFF894FFCF14
:00000001FF
