:1000000009C016C015C021C013C012C011C010C055
:100010000FC00EC011241FBECFE9CDBF20E0A0E667
:10002000B0E001C01D92A536B207E1F752D08EC0F4
:10003000E7CF83EA8FBD82E083BF89BF78940895BC
:10004000F8941FBC13BE19BE08951F920F920FB6ED
:100050000F9211242F938F939F9380916000909122
:100060006100019690936100809360008D3F914202
:1000700010F01092640090916400809163009923C5
:10008000F1F0811102C01092620090916200911112
:1000900005C08F3F19F08F5F8093630080916300EC
:1000A0008F3F29F49F3F19F09F5F909362009091DA
:1000B00062009F3F31F481508093630002C0811140
:1000C000FACF9F918F912F910F900FBE0F901F909D
:1000D00018951092640010926300109262001092C2
:1000E00061001092600087E187BBC39A16BE19BCFD
:1000F000C1E0B39907C0109261001092600099DFCF
:10010000C093640080916400882349F0C29A809172
:1001100062008F3F11F0C49A05C0C49803C088B331
:100120008B7E88BB8091630086BF90916400809134
:100130006300911108C0811106C082DF19BC88B329
:100140008C7F88BBD6CF809589BDD3CFF894FFCF65
:00000001FF
