:1000000009C016C015C021C013C012C011C010C055
:100010000FC00EC011241FBECFE9CDBF20E0A0E667
:10002000B0E001C01D92A436B207E1F73AD08EC00D
:10003000E7CF83EA8FBD82E083BF89BF78940895BC
:10004000F8941FBC13BE19BE08951F920F920FB6ED
:100050000F9211248F939F93909162008091600082
:10006000992351F08F3F19F08F5F8093600080914A
:1000700060008F3F79F409C0882319F08150809384
:10008000600080916000811105C0809161008F5FE8
:10009000809361009F918F910F900FBE0F901F90E2
:1000A00018951092630010926200109260001092F6
:1000B000610085E187BBC39A16BE19BCC1E080917F
:1000C0006300811106C080916100811102C0B39963
:1000D00037C0809161009FEF980F963040F096EF07
:1000E000980F933020F090EF980F963018F4C0934B
:1000F000620002C010926200883120F0109263000A
:10010000109261008091600086BF80916300811130
:1001100008C080916000811104C092DF88B38E7E98
:1001200088BB80916200882311F0C49A01C0C498F2
:1001300080916300882311F0C29AC1CFC298BFCFCB
:1001400078DFC0936100C0936300C3CFF894FFCF02
:00000001FF
