:1000000009C016C015C01CC013C012C011C010C05A
:100010000FC00EC011241FBECFE9CDBF20E0A0E667
:10002000B0E001C01D92A436B207E1F735D07DC023
:10003000E7CF83EA8FBD82E083BF89BF78940895BC
:100040001F920F920FB60F9211248F939F9390914E
:10005000620080916000992351F08F3F19F08F5F0B
:1000600080936000809160008F3F79F409C08823FD
:1000700019F081508093600080916000811105C06B
:10008000809161008F5F809361009F918F910F90AD
:100090000FBE0F901F90189510926300109262008F
:1000A000109260001092610085E187BBC39A16BE72
:1000B00019BCBFDF91E080916300811106C080917F
:1000C0006100811102C0B3992BC0809161002FEFB4
:1000D000280F263040F026EF280F233020F020EFA5
:1000E000280F263018F49093620002C0109262002C
:1000F000883120F0109263001092610080916000BE
:1001000086BF80916200882311F0C49A01C0C49810
:1001100080916300882311F0C29ACDCFC298CBCFD3
:0E0120009093610090936300D0CFF894FFCFCE
:00000001FF
